:020000040800F2
:1000000000400120193C00085D270008092700086E
:100010006927000871270008792700080000000000
:100020000000000000000000000000008127000820
:100030008D2700080000000099270008A527000868
:10004000C1270008CD270008D9270008E5270008A8
:10005000F1270008FD2700080928000815280008D6
:10006000212800082D280008392800084528000804
:10007000512800085D280008692800087528000834
:10008000812800088D28000899280008A528000864
:10009000B1280008BD280008C9280008D528000894
:1000A000E1280008ED290008F928000805290008C3
:1000B000112900081D2900082929000835290008F0
:1000C000412900084D290008592900086529000820
:1000D000712900088D2600087D290008892900085B
:1000E00095290008A1290008AD290008B9290008B0
:1000F000C529000800000000D1290008DD290008FA
:10010000E9290008F5290008012A00080D2A00083D
:10011000192A0008252A0008312A00083D2A00086B
:10012000492A000800000000000000000000000054
:0C01300000000000000000005FF808F173
:1001400010B5054C237833B9044B13B10448AFF311
:1001500000800123237010BD240500200000000052
:10016000584C0008084B10B51BB108480849AFF3BC
:1001700000800848036803B910BD074B002BFBD073
:10018000BDE81040184700BF00000000584C0008B0
:1001900028050020240500200000000080B400AFE6
:1001A000034B01221A70BD465DF8047B704700BF07
:1001B0004005002080B584B000AF0123FB73454BA0
:1001C00003221A7003F078FD03F0D4FD0346002BE0
:1001D00002D0404B01221A7002F068F90346BB734B
:1001E000BB7B072B20D801A252F823F0290200087C
:1001F0002902000829020008210200082102000843
:100200000D020008210200082102000802F026F970
:100210000346002B03D02F4B02221A7004E003E0A8
:100220002C4B02221A7000BF2A4B1B78DBB2022B28
:1002300002D101F0D3FFFEE702F0E0F84FF4E13025
:1002400002F092F9244B5A6BFB7B244811461A4664
:1002500004F0BAF82248234904F0B6F822482349AA
:10026000234A04F0B1F82348802103F0BFF800F0DE
:1002700045F9214B1B68BB601F4B1B681F4AA2FB43
:1002800003235B097B6000F055F9124B1B78DBB24E
:10029000032B08D1184B1A68BB68D31AB3F57A7FC1
:1002A00001D900F0C5F9164B1A687B689A420DD047
:1002B0007B6803F00103002B04D00E48802103F07B
:1002C00095F803E00B48802103F09EF80C4A7B6808
:1002D0001360D1E74005002000380240804C000840
:1002E0009C4C00089DC68F0EAC4C0008C04C00080A
:1002F00004E0105800080240884900201F85EB5197
:100300004405002080B584B000AF78600023FB6016
:10031000184B1B68002B02D1164B174A1A60174B5B
:100320001A687B68134443F6FE72934213D8134B4A
:100330001A687B681A44114B1B689A420BD90D4B03
:100340001A680E4B1B681344FB600C4B1A687B68E1
:1003500013440A4A1360FB68002B05D108486D213D
:10036000084A094B03F018FDFB6818461037BD46D4
:1003700080BD00BF4C4500204905002048450020B5
:10038000CC4C0008E44D0008DC4C000880B400AF01
:1003900001231846BD465DF8047B704780B483B0E6
:1003A00000AF78603960054B16221A604FF0FF33BA
:1003B00018460C37BD465DF8047B7047C0490020E5
:1003C00080B582B000AF786078684FF0FF31FFF7FA
:1003D000E5FFFEE780B485B000AFF860B9607A60F1
:1003E000002318461437BD465DF8047B704700BFF4
:1003F00080B586B000AFF860B9607A6000237B6199
:1004000009E07B69BA6813441B78184602F0F8F8D3
:100410007B6901337B617A697B689A42F1DB7B6897
:1004200018461837BD4680BD80B582B000AF7860F1
:100430007B68002B01D104237B607B681846FFF7A3
:1004400061FF034618460837BD4680BD80B483B0BF
:1004500000AF78604FF0FF3318460C37BD465DF8AB
:10046000047B704780B483B000AF786039603B682C
:100470004FF400525A60002318460C37BD465DF811
:10048000047B704780B483B000AF786001231846C6
:100490000C37BD465DF8047B704700BF80B485B063
:1004A00000AFF860B9607A60002318461437BD4683
:1004B0005DF8047B704700BF80B586B000AFF86080
:1004C000B9607A60FB6893F82C30002B10D10023C0
:1004D0007B6109E0BA687B6913441B78184602F017
:1004E0008FF87B6901337B617A697B689A42F1D32B
:1004F000002318461837BD4680BD00BF80B582B0C6
:1005000002AF00F0A3FE084B002283F82C204FF42A
:1005100080730093044805494FF48072044B01F046
:100520003FF9BD4680BD00BF8C49002050450020EA
:100530005046002080B582B000AFFB1D184602F087
:1005400089F80346002B04D0FB790348194601F0D3
:1005500045FB0837BD4680BD8C49002080B500AF03
:1005600001F0CAFD0346002B01D0012300E0002367
:10057000184680BD80B400AF044B054A1A60054B95
:10058000034A1A60BD465DF8047B704700000020F6
:10059000006000080400002080B582B000AF7860E1
:1005A0003960134B1B68184679683A6801F00CFCF7
:1005B0000346002B16D00E4B1B68184679683A6824
:1005C00001F014FD034683F00103DBB2002B01D0E0
:1005D000002308E0064B1A683B681344044A136082
:1005E000012300E0002318460837BD4680BD00BF48
:1005F0000000002080B582B000AF786039600B4BFE
:100600001B68184679683A6801F02EFD0346002BF6
:1006100007D0064B1A683B681344044A1360012351
:1006200000E0002318460837BD4680BD04000020C6
:1006300080B500AF01F0CAFD80BD00BFB0B58AB083
:1006400000AF786007F10C03184600211C2203F06C
:10065000ECFB7B681D4607F10C040FCC0FC594E83A
:10066000070085E8070078682837BD46B0BD00BFA1
:1006700080B582B000AF7860786801F0E9FD083796
:10068000BD4680BDB0B58AB000AF786007F1080301
:1006900018460021202203F0C8FB07F10803184682
:1006A000FFF7E6FF01F0FEFD0346BB8301F002FE0B
:1006B0000346FB8301F006FE03467B610A4B3B6267
:1006C000094B7B627B69A3F5C043BB617B681D4618
:1006D00007F108040FCC0FC594E80F0085E80F0060
:1006E00078682837BD46B0BD0060000880B489B086
:1006F00000AFF860B9607A6000233B750023BB61EE
:10070000BB68FB617B68002B0CD103233B75012385
:10071000BB61FB681A4607F1140393E8030082E803
:10072000030025E0FB691B78012B06D11423BB6174
:1007300000BF3B7D022B13D00AE002233B75FB6810
:100740001A4607F1140393E8030082E803000FE060
:10075000BA697B689A4201D9032300E000233B7504
:10076000FB681A4607F1140393E8030082E80300CC
:10077000F8682437BD465DF8047B704780B586B0C5
:1007800000AF78603960154A7B68136007F1080391
:10079000184679683A68FFF7A9FF3B7A002B05D025
:1007A0000F485E210F4A104B03F0F6FA07F11003D1
:1007B000184679683A68FFF799FF7A693B689A4268
:1007C00005D907485F21074A084B03F0E5FA0320E3
:1007D00000F088FD1837BD4680BD00BF504700209F
:1007E000E84C0008F04D0008284D0008784D00083E
:1007F00080B500AF054B1B78002B00D005E0034B04
:1008000001221A70032000F059FD80BD54470020DA
:1008100080B584B000AFF860B9607A60F8680649C6
:10082000102203F0F7FABB6804221A707B680122D9
:100830001A801037BD4680BDC44D000880B489B011
:1008400000AFF860B9607A60BB68FB6103233B7559
:100850007B68002B0CD103233B750123BB61FB6834
:100860001A4607F1140393E8030082E8030088E0C6
:10087000FB691B781C2B67D801A252F823F000BF3C
:10088000F508000849090008490900084909000855
:10089000010900084909000807090008490900087A
:1008A000FB080008490900080D090008490900086B
:1008B0001309000849090008190900084909000836
:1008C0001F0900084909000825090008490900080E
:1008D0002B090008490900083109000849090008E6
:1008E00037090008490900083D09000849090008BE
:1008F000430900080123BB6133E00123BB6130E001
:100900000123BB612DE00123BB612AE00523BB610C
:1009100027E00123BB6124E00123BB6121E08123A7
:10092000BB611EE00123BB611BE00123BB6118E03A
:100930000123BB6115E00123BB6112E00123BB6110
:100940000FE00123BB610CE00023BB6102233B7578
:10095000FB681A4607F1140393E8030082E80300DA
:100960000FE0BA697B689A4201D9032300E00023B3
:100970003B75FB681A4607F1140393E8030082E80D
:100980000300F8682437BD465DF8047B704700BF5C
:10099000B0B5CEB000AF07F13403186007F13003F3
:1009A000196007F134031B68C7F83431D7F83431C4
:1009B0005A1CC7F834211B781C2B00F2418401A279
:1009C00052F823F0390A00084112000841120008C9
:1009D00041120008770C0008411200089D0C000825
:1009E00041120008C30A000841120008C30C0008A5
:1009F00041120008690D000841120008CB0D0008E3
:100A000041120008F10D000841120008690E0008AB
:100A100041120008D90E000841120008170F000803
:100A200041120008550F0008411200087310000819
:100A3000411200081D120008CA4B00221A7007F16B
:100A4000F40107F1F00207F1EC03084611461A46DB
:100A5000FFF7DEFEC34B1B78002B31D1142000F0D2
:100A600051FC012000F05CFC0023C7F830310DE0A0
:100A700007F1F402D7F8303113441B78184600F020
:100A80004FFCD7F830310133C7F83031D7F8303167
:100A90000F2BEDDD97F8F030184600F041FCB7F869
:100AA000EC30DBB2184600F03BFCB7F8EC301B0A28
:100AB0009BB2DBB2184600F033FC00F041FCBFE310
:100AC000BEE3A84B00221A7007F138043B461846D3
:100AD00000F01CFD3B461D460FCD0FC40FCD0FC4CB
:100AE00095E8070084E807009E4B1B78002B40F038
:100AF000C1802C2000F006FC092000F011FC07F159
:100B000038031B68DBB2184600F00AFC07F1380313
:100B10001B681B0ADBB2184600F002FC07F1380321
:100B20001B681B0CDBB2184600F0FAFB07F1380318
:100B30001B681B0EDBB2184600F0F2FB07F138030E
:100B40005B68DBB2184600F0EBFB07F138035B682B
:100B50001B0ADBB2184600F0E3FB07F138035B68C1
:100B60001B0CDBB2184600F0DBFB07F138035B68B7
:100B70001B0EDBB2184600F0D3FB07F138039B686D
:100B8000DBB2184600F0CCFB07F138039B681B0A68
:100B9000DBB2184600F0C4FB07F138039B681B0C5E
:100BA000DBB2184600F0BCFB07F138039B681B0E54
:100BB000DBB2184600F0B4FB07F138039B89DBB2C7
:100BC000184600F0ADFB07F138039B891B0A9BB266
:100BD000DBB2184600F0A4FB0023C7F82C310EE06E
:100BE00007F13802D7F82C31134408339B791846A3
:100BF00000F096FBD7F82C310133C7F82C31D7F829
:100C00002C310B2BECDD07F138039B7E184600F0EE
:100C100087FB0023C7F828310EE007F13802D7F828
:100C2000283113441833DB78184600F079FBD7F8E5
:100C300028310133C7F82831D7F82831072BECDDEC
:100C40000023C7F824310EE007F13802D7F8243129
:100C500013442033DB78184600F062FBD7F82431C8
:100C60000133C7F82431D7F82431072BECDD00F02D
:100C700067FBE5E2E4E23B4B00221A7000F090FCD7
:100C8000384B1B78002B08D1012000F03BFB0520DE
:100C900000F046FB00F054FBD2E2D1E2314B0022DF
:100CA0001A7000F083FC2F4B1B78002B08D1012019
:100CB00000F028FB072000F033FB00F041FBBFE20F
:100CC000BEE2D7F834315A1CC7F834211B78C7F874
:100CD0000C31D7F834315A1CC7F834211B781B0269
:100CE0001A46D7F80C311343C7F80C31D7F8343112
:100CF0005A1CC7F834211B781B041A46D7F80C314C
:100D00001343C7F80C31D7F834315A1CC7F83421D3
:100D10001B781B061A46D7F80C311343C7F80C3161
:100D2000104B00221A70D7F80C0100F095FB034617
:100D300087F8E8300B4B1B78002B11D1022000F014
:100D4000E1FA0B2000F0ECFA97F8E83087F80B3165
:100D500097F80B31184600F0E3FA00F0F1FA6FE271
:100D60006EE200BF55470020D24B00221A7000F0FF
:100D70007FFB0346C7F8E430CE4B1B78002B23D112
:100D8000052000F0BFFA0D2000F0CAFAD7F8E430D1
:100D9000DBB2184600F0C4FAD7F8E4301B0ADBB225
:100DA000184600F0BDFAD7F8E4301B0CDBB2184649
:100DB00000F0B6FAD7F8E4301B0EDBB2184600F0AC
:100DC000AFFA00F0BDFA3BE23AE2BA4B00221A70E9
:100DD00000F056FBB74B1B78002B08D1012000F028
:100DE00091FA0F2000F09CFA00F0AAFA28E227E21C
:100DF0000023C7F8203111E0D7F834315A1CC7F866
:100E00003421197807F13802D7F8203113440A4603
:100E10001A70D7F820310133C7F82031D7F82031C4
:100E20007F2BE9DDA34B00221A7007F13803184627
:100E300000F02CFB034687F8E0309E4B1B78002B1C
:100E400011D1022000F05EFA112000F069FA97F843
:100E5000E03087F80A3197F80A31184600F060FA56
:100E600000F06EFAECE1EBE1924B00221A7007F110
:100E70003803184600F018FB034687F8DC308D4B2A
:100E80001B78002B27D1822000F03CFA132000F0C1
:100E900047FA97F8DC3087F8093197F80931184696
:100EA00000F03EFA0023C7F81C310DE007F13802CC
:100EB000D7F81C3113441B78184600F031FAD7F8E4
:100EC0001C310133C7F81C31D7F81C317F2BEDDD05
:100ED00000F036FAB4E1B3E1764B00221A7000F06C
:100EE000B3FA034687F8D830724B1B78002B11D128
:100EF000022000F007FA152000F012FA97F8D83017
:100F000087F8083197F80831184600F009FA00F020
:100F100017FA95E194E1674B00221A7000F0D2FABB
:100F2000034687F8D430634B1B78002B11D1022085
:100F300000F0E8F9172000F0F3F997F8D43087F8BB
:100F4000073197F80731184600F0EAF900F0F8F990
:100F500076E175E1574B00221A703B46184600F0C7
:100F6000BDFA3B4607F1B8041D460FCD0FC495E806
:100F7000070084E807004F4B1B78002B78D11B201B
:100F800000F0C0F9192000F0CBF9D7F8B830DBB287
:100F9000184600F0C5F9D7F8B8301B0ADBB218467E
:100FA00000F0BEF9D7F8B8301B0CDBB2184600F0E1
:100FB000B7F9D7F8B8301B0EDBB2184600F0B0F91D
:100FC000D7F8BC30DBB2184600F0AAF9D7F8BC302D
:100FD0001B0ADBB2184600F0A3F9D7F8BC301B0C93
:100FE000DBB2184600F09CF9D7F8BC301B0EDBB220
:100FF000184600F095F9B7F8C030DBB2184600F09B
:101000008FF9B7F8C0301B0A9BB2DBB2184600F06C
:1010100087F90023C7F818310DE007F1C002D7F8AF
:10102000183113449B78184600F07AF9D7F8183134
:101030000133C7F81831D7F81831072BEDDD00233D
:10104000C7F814310DE007F1C802D7F81431134482
:101050009B78184600F064F9D7F814310133C7F8CB
:101060001431D7F81431072BEDDD00F069F9E7E012
:10107000E6E0104B00221A7007F138043B46184690
:1010800000F038FA3B461D460FCD0FC495E80F001F
:1010900084E80F00074B1B78002B40F0BE80212016
:1010A00000F030F91B2000F03BF90023C7F81031A5
:1010B00010E000BF5547002007F13802D7F8103183
:1010C00013441B78184600F02BF9D7F81031013380
:1010D000C7F81031D7F810310B2BEDDD07F13803CD
:1010E000DB68DBB2184600F01BF907F13803DB6858
:1010F0001B0ADBB2184600F013F907F13803DB686E
:101100001B0CDBB2184600F00BF907F13803DB6863
:101110001B0EDBB2184600F003F907F138031B6918
:10112000DBB2184600F0FCF807F138031B691B0A14
:10113000DBB2184600F0F4F807F138031B691B0C0A
:10114000DBB2184600F0ECF807F138031B691B0E00
:10115000DBB2184600F0E4F807F138039B8ADBB2F3
:10116000184600F0DDF807F138039B8A1B0A9BB292
:10117000DBB2184600F0D4F807F13803DB8ADBB2A3
:10118000184600F0CDF807F13803DB8A1B0A9BB242
:10119000DBB2184600F0C4F807F138039B69DBB2F4
:1011A000184600F0BDF807F138039B691B0ADBB253
:1011B000184600F0B5F807F138039B691B0CDBB249
:1011C000184600F0ADF807F138039B691B0EDBB23F
:1011D000184600F0A5F807F13803DB69DBB21846C2
:1011E00000F09EF807F13803DB691B0ADBB21846F2
:1011F00000F096F807F13803DB691B0CDBB21846E8
:1012000000F08EF807F13803DB691B0EDBB21846DD
:1012100000F086F800F094F812E011E00A4B00228A
:101220001A7000F0C9F9084B1B78002B07D1012078
:1012300000F068F81D2000F073F800F081F800BF9E
:1012400007F59C77BD46B0BD5547002080B582B0FC
:1012500000AF00237B600CE0094A7B681344002246
:101260001A707B68DBB2184600F03CF87B680133EB
:101270007B607B68032BEFDD0837BD4680BD00BF78
:10128000BC49002080B483B000AF786039607B68CF
:1012900001221A70012318460C37BD465DF8047B05
:1012A000704700BF80B483B000AF78607B680022D5
:1012B0001A700C37BD465DF8047B704780B582B06C
:1012C00000AF0346FB71FB79054A134442F21072EA
:1012D00018461146FFF7D6FF0837BD4680BD00BF50
:1012E000BC49002080B582B000AF0346FB71FB799A
:1012F000034A13441846FFF7D5FF0837BD4680BDA3
:10130000BC49002080B582B000AF7860034879689E
:1013100000F0C8FA0837BD4680BD00BF8C490020E8
:1013200080B582B000AF0346FB71FB7903481946D4
:1013300000F072FB0837BD4680BD00BF8C4900201D
:1013400080B500AF024800F07FFB0346184680BD21
:101350008C49002080B586B000AFF860B9607A6033
:101360003B60BB6893F82C30002B06D1FB68184615
:1013700079683A68FFF762FA0BE000237B6101238A
:101380003B74FB681A4607F1100393E8030082E8F8
:101390000300F8681837BD4680BD00BF80B586B031
:1013A00000AFF860B9607A603B60BB6893F82C309E
:1013B000002B06D1FB68184679683A68FFF796F962
:1013C0000BE000237B6101233B74FB681A4607F1A5
:1013D000100393E8030082E80300F8681837BD465D
:1013E00080BD00BF80B584B000AFF860B9607A609E
:1013F000FB6893F82C30002B03D1B8687968FFF7AD
:10140000C7FA1037BD4680BD80B584B000AFF86024
:10141000B9607A60FB6893F82C30002B03D1B86870
:101420007968FFF7ABF91037BD4680BD80B582B053
:1014300000AF78607B6893F82C30002B01D1FFF768
:10144000D7F90837BD4680BD80B500AFFFF786F8F5
:101450000346184680BD00BF80B483B000AF7860FB
:10146000012318460C37BD465DF8047B704700BF6A
:1014700080B400AF00231846BD465DF8047B70477A
:1014800080B500AFFFF776F880BD00BF80B582B0B1
:1014900000AF786078688021FFF77EF80346184631
:1014A0000837BD4680BD00BF80B582B000AF786010
:1014B00078688021FFF79EF8034618460837BD4636
:1014C00080BD00BF80B483B000AF0023FB71FB7907
:1014D00018460C37BD465DF8047B704780B582B076
:1014E00000AF78607B681846FFF7A8F8786808377F
:1014F000BD4680BD80B582B000AF78607B6818467D
:10150000FFF7C0F878680837BD4680BDB0B592B027
:1015100000AF78601E4A07F1100307CA03C31A70B0
:101520001C4BFB6007F11C03184600212C2202F023
:101530007CFC194BFB61194B3B6200237B6207F17A
:101540001C030E331846FFF793F801233B85002355
:1015500087F8363007F1370207F1100303CB10602C
:10156000516007F13F0207F10C0303CB106051609B
:101570007B681D4607F11C040FCC0FC50FCC0FC5AF
:1015800094E8070085E8070078684837BD46B0BD95
:10159000D84D0008302E31009DC68F0E04E0105843
:1015A00080B400AFBD465DF8047B704780B500AFE6
:1015B000FEF7F4FD80BD00BF80B500AFFFF738F83F
:1015C00080BD00BF80B485B000AF78600B467B80E3
:1015D0004FF6FF73FB8125E0FB891B0A9BB2DAB251
:1015E0007B68591C79601B7853407B737B7B1B099C
:1015F000DAB27B7B53407B73FB891B029AB27B7B05
:101600009BB21B039BB29BB253409AB27B7B9BB2B3
:101610005B019BB29BB253409AB27B7B9BB253401F
:101620009BB2FB817B885A1E7A80002BD4D1FB8928
:1016300018461437BD465DF8047B704780B485B00A
:1016400000AF03463960FB713B681B881B0A9BB2E5
:10165000DAB2FB795340FB73FB7B1B09DAB2FB7BED
:101660005340FB733B681B881B029AB2FB7B9BB207
:101670001B039BB29BB253409AB2FB7B9BB25B01B4
:101680009BB29BB253409AB2FB7B9BB253409BB23E
:101690009AB23B681A801437BD465DF8047B7047E8
:1016A00080B483B000AF78607B684FF6FF721A8019
:1016B0000C37BD465DF8047B704700BF80B485B031
:1016C00000AF78600123FB737B68002B01D10023FE
:1016D000FB737B6893F8293083F00103DBB2002BA6
:1016E00001D00023FB737B681B69002B0DD07B6846
:1016F0001B68002B09D07B685B69002B05D07B68D9
:101700005B68002B01D0012300E00023002B01D1F6
:101710000023FB73FB7B18461437BD465DF8047B42
:10172000704700BF80B582B000AF78607868FFF77F
:10173000C5FF0837BD4680BD80B582B000AF786078
:101740007868FFF7EFFF7B6800225A837B680022EE
:101750005A767B6800221A767B68022283F8202062
:101760007B68002283F828200837BD4680BD00BF73
:1017700080B582B000AF78607868FFF7D3FF7B68F0
:1017800000229A817B6800225A817B6800221A819C
:101790007B680E331846FFF783FF0837BD4680BDD0
:1017A00080B584B000AFF860B9607A603B60FB68D8
:1017B000BA681A61FB687A685A61FB683A681A600D
:1017C000FB68BA695A60BB68002B0AD03B68002BE3
:1017D00007D07B68002B04D0BB69002B01D001230C
:1017E00000E0002303F00103DAB2FB6883F829204C
:1017F000F868FFF7BDFFF868FFF79EFFFB6800225F
:101800001A77FB6800225A77FB6800229A77F868FB
:10181000FFF70CFE1037BD4680BD00BF80B582B01B
:1018200000AF78600B46FB707868FFF77BFF7B6842
:101830009B891A467B685B689A420CD27B681B685E
:101840007A6892891344FA781A707B689B8901330D
:101850009AB27B689A810837BD4680BD80B582B058
:1018600000AF78600B46FB707868FFF75BFF7B6822
:101870005B8B1A467B685B699A420DD27B681B6959
:101880007A68528B1344FA781A707B685B8B013349
:101890009AB27B685A8302E07868FFF74DFF0837F9
:1018A000BD4680BD80B582B000AF78603960786891
:1018B000FFF738FF7868FFF75BFF7868FF21FFF7D5
:1018C000ADFF7868FF21FFF7A9FF7868FF21FFF7D8
:1018D000A5FF0837BD4680BD80B584B000AF7860F5
:1018E0000B46FB707868FFF71DFF7B681B7E002BA3
:1018F00003D17B68FA785A7622E07B685B7EFB73C3
:101900007B681B7E03F00103002B0ED0FA7B7B6803
:101910001B7E013BD90F0B445B1042FA03F3FB73B0
:10192000FB7B03F00103FB7301E00023FB73FA78F8
:10193000FB7B1343FB70FB7878681946FFF78EFF3B
:101940007B681B7E0133DAB27B681A767B681B7E6C
:101950000F2B02D17B6800221A761037BD4680BD5E
:1019600080B584B000AF78600B46FB707868FFF7F5
:10197000D9FE7B685B89002B0CD178680021FFF7CA
:101980004DFF7B689B89013B9AB27B685A817B68DB
:1019900000221A81FB7803F00103FB737B681B892B
:1019A00003F00103002B1ED17B681B895B089BB2EF
:1019B000BB737B681B687A68528913447A68126823
:1019C000796849890A441278D0B2F97BBA7B01FA66
:1019D00002F2D2B201460A43D2B2D2B21A70FB78F6
:1019E00023F00103FB70FB7878681946FFF716FFB8
:1019F0007B681B8901339AB27B681A817B681B89DB
:101A00000E2B05D17B6800225A817B6800221A8147
:101A10001037BD4680BD00BF80B582B000AF786092
:101A20000B46FB707868FFF77DFE7B680E33FA7813
:101A300010461946FFF702FEFB7878681946FFF753
:101A40008FFF0837BD4680BD80B584B000AF786099
:101A50007868FFF767FE7B68DB89DBB27868194638
:101A6000FFF7DCFE7B68DB891B0A9BB2DBB2786880
:101A70001946FFF7D3FE7B681A687B689B897868F4
:101A800011461A46FEF718FD0346FB737868FFF708
:101A90006FFEFB7B18461037BD4680BD80B582B017
:101AA00000AF78600B46FB707868FFF73BFE7B6801
:101AB0005A7F7B681A777B689A7F7B685A777B6846
:101AC000FA789A777B681B7FFF2B09D17B689B7F15
:101AD000FF2B05D17B685B7FFF2B01D1012300E049
:101AE000002318460837BD4680BD00BF80B588B0CA
:101AF00000AFF860B9607A60F868FFF713FE002362
:101B0000FB77BB68002B04D103233B750123BB612A
:101B100009E0FB681B6907F114021046F9681A46D0
:101B2000BB68FFF73BFC3B7D002B0AD10123FB7711
:101B30007B681A4607F1140393E8030082E8030068
:101B40000AE03B7D032B07D17B681A4607F114039B
:101B500093E8030082E80300FB7F18462037BD4668
:101B600080BD00BF80B588B000AFF860B9607A6012
:101B7000F868FFF7D7FD0023FB77BB68002B04D183
:101B800003233B750123BB6109E0FB681B6907F177
:101B900014021046F9681A46BB68FFF7DBFB3B7D71
:101BA000002B0AD10123FB777B681A4607F1140347
:101BB00093E8030082E803000AE03B7D032B07D192
:101BC0007B681A4607F1140393E8030082E80300D8
:101BD000FB7F18462037BD4680BD00BF80B586B06C
:101BE00000AF78600B46FB707868FFF79BFDFB78D1
:101BF00078681946FFF752FF0346002B06D0786835
:101C0000FFF79AFD7B68012283F828207B6893F810
:101C10002830042B00F2BF8001A252F823F000BF4D
:101C2000971D0008351C00083F1C0008A31C000875
:101C3000C71C00087B68022283F82820ACE0FB78F0
:101C400078681946FFF748FE7B6893F82030002B30
:101C500016D07B685B8B1A467B6820337868114608
:101C60001A46FFF743FF0346002B09D17B685B8BC5
:101C70001A467B682033786811461A46FFF772FFD0
:101C80007B6893F82030002B0AD17B685B6A7A6806
:101C9000528B934204D17B68032283F828207BE097
:101CA0007AE0FB7878681946FFF7D8FD7B685B6AB5
:101CB00002337A68528B934204D17B68042283F802
:101CC000282000E068E07B681A697B685B8B023B38
:101CD0009BB210461946FFF775FC0346FB82FB8A50
:101CE0001B0A9BB27B75FB8A3B757B681A697B6814
:101CF0005B8B013B13441B787A7D9A4243D17B680E
:101D00001A697B685B8B023B13441B783A7D9A42CD
:101D100039D102233B737B685B8B023B1A4607F188
:101D20000C03786811461A46FFF7E0FE0346002BC5
:101D30000DD03B7B002B26D17B681A697B685B8BBF
:101D4000023B786811461A46FFF75EFB1BE07B6892
:101D50005B8B023B1A4607F10C03786811461A4662
:101D6000FFF700FF0346002B0DD03B7B002B0AD171
:101D70007B681A697B685B8B023B786811461A4660
:101D8000FFF730FBFFE77868FFF7D6FC7B6800229F
:101D900083F8282000E000BF1837BD4680BD00BF93
:101DA00080B400AFBFF34F8F0549054BDB6803F4E8
:101DB000E062044B1343CB60BFF34F8FFEE700BFDD
:101DC00000ED00E00400FA052DE9F0438FB000AF0C
:101DD000F860B9607A60042387F82B30012387F814
:101DE000373080237B626F48402101F00DFB7B6818
:101DF0007A6AB3FBF2F2796A01FB02F29B1A002BBA
:101E000001D00023C9E0FB687A6AB3FBF2F2796A79
:101E100001FB02F29B1A002B01D00023BDE0FA68FF
:101E20007B681344604A934201D90023B5E001F076
:101E3000D3F841F6027001F045F97A687B6AB2FB8B
:101E4000F3F33B6200233B6391E06B461E467B6AE3
:101E50009B08FB61FB69013BBB61FB691A464FF0C4
:101E600000035D0145EAD2655401FB691A464FF053
:101E700000034FEA431949EAD2694FEA4218FB6965
:101E80009B0003330733DB08DB00ADEB030D6B4630
:101E900003339B089B007B610023FB6224E0FB6A09
:101EA0009B000333BA6813441B781A06FB6A9B0035
:101EB0000233B9680B441B781B041A43FB6A9B006E
:101EC0000133B9680B441B781B021343FA6A920072
:101ED000B9680A441278134319467B69FA6A43F8D1
:101EE0002210FB6A0133FB62FA6AFB699A42D6D37D
:101EF0003B6B1A02FB6813443B6172B67B6938691D
:101F0000194602F0B5FE034687F82B3062B697F803
:101F10002B30042B24D097F82B30012B02D1002337
:101F200087F8373097F82B30022B02D1002387F83F
:101F3000373097F82B30032B02D1002387F8373046
:101F400097F82B30052B02D1002387F83730002378
:101F500087F8373041F6027001F0B4F8002300E052
:101F60000123B546012B07D13B6B01333B633A6B31
:101F70003B6A9A42FFF469AF01F046F897F83730B0
:101F8000002B04D00748402101F030FA03E0054857
:101F9000402101F039FA97F8373018463C37BD46F2
:101FA000BDE8F083000802400000080880B483B058
:101FB00000AF786039603B68DAB27B681A707B6882
:101FC00001333A68120AD2B21A707B6802333A6857
:101FD000120CD2B21A707B6803333A68120ED2B276
:101FE0001A700C37BD465DF8047B704780B588B029
:101FF00000AFF860B9607A60FB68FB611948402166
:1020000001F002FA0023BB611EE0FB691B687B61E3
:1020100007F1100318467969FFF7C8FFBB699B00F9
:10202000BA681A4407F1100310461946042201F059
:10203000E1FE0346002B01D000230FE0FB690433CF
:10204000FB61BB690133BB617B689A08BB699A423B
:10205000DBD80448402101F0C9F901231846203794
:10206000BD4680BD0008024080B588B000AFF86072
:10207000B9607A60FB68FB611D48402101F0C4F93A
:102080007B6803F00303002B01D000232CE0FB68E6
:1020900003F00303002B01D0002325E0FA687B68DE
:1020A0001344144A934201D900231DE00023BB616D
:1020B00010E0FB691B687B61BB699B00BA68134435
:1020C00018467969FFF772FFFB690433FB61BB694E
:1020D0000133BB617B689A08BB699A42E9D804481E
:1020E000402101F083F9012318462037BD4680BD09
:1020F000000802400000080880B586B000AF002349
:10210000FB602E4BBB600423FB710123FB752C4845
:10211000402101F079F900F05FFF41F6027000F014
:10212000D1FFBA68274B9B1A1B0AFB6000233B6157
:102130002DE03B691A02BB681344234A1360224B0B
:102140001B68184600F06EFF0346FB71FB79042BF9
:1021500016D0FB79012B01D10023FB75FB79022BF3
:1021600001D10023FB75FB79032B01D10023FB7503
:10217000FB79052B01D10023FB750023FB750AE0D9
:1021800041F6027000F09EFF3B6901333B613A6902
:10219000FB689A42CDD300F037FFFB7D002B04D0C3
:1021A0000748402101F022F903E00548402101F0F1
:1021B0002BF9FB7D18461837BD4680BD006000082E
:1021C00000080240010008086447002080B500AF05
:1021D00000F05EF9FFF7E4FD80BD00BF80B582B07E
:1021E00000AF154B1B68154A1360144B1A68144B4B
:1021F0001340B3F1005F1BD1124B1B68124A1360EE
:1022000072B6114B1B681A46104B1A604FF00060F3
:102210004FF4C04100F0B0FE00F002F9074B1B681C
:102220007B607B6883F30888084B1B689847FEE750
:102230000837BD4680BD00BF006000085C47002035
:102240000000FE2F0460000860470020584700206F
:1022500080B586B000AF78600F4B7B610F4B3B6160
:102260000F4BFB607B691B6878681946FFF79EFE81
:102270007B681A1D3B691B6810461946FFF796FEDE
:102280007B6803F10802FB681B6810461946FFF7DC
:102290008DFE1837BD4680BDD000F81FD400F81F52
:1022A000E400F81F80B500AF00F088FE03469BB243
:1022B000184680BD80B500AF00F074FE03469BB2A7
:1022C000184680BD80B584B000AF104BBB60FFF7EF
:1022D000E9FF0346FB80BB681B88FB60FB8840F27C
:1022E000364293420AD1FB68DBB2002B03D04FF495
:1022F000C073FB6002E04FF48073FB60FB689B02DD
:10230000FB60FB6818461037BD4680BDCC00F81F47
:1023100080B483B000AF03463960FB7197F9073092
:10232000002B0BDA0D49FB7903F00F03043B3A68ED
:10233000D2B21201D2B20B441A7609E0084997F9D9
:1023400007303A68D2B21201D2B20B4483F80023AC
:102350000C37BD465DF8047B704700BF00ED00E020
:1023600000E100E080B582B000AF78607B68013B9F
:10237000B3F1807F01D301230FE00A4A7B68013B60
:1023800053604FF0FF300F21FFF7C2FF054B0022D3
:102390009A60044B07221A60002318460837BD468E
:1023A00080BD00BF10E000E080B400AF72B6BD4653
:1023B0005DF8047B704700BF80B400AF62B6BD46D5
:1023C0005DF8047B704700BF80B500AF094B1B6808
:1023D000094AA2FB03239B091846FFF7C3FF0346E4
:1023E000002B00D0FEE74FF0FF300021FFF790FFF9
:1023F00080BD00BF08000020D34D621080B500AF43
:1024000000F05AFB0120012101F096F94FF44070D1
:1024100000F040FDFFF7D8FF01F04EFC80BD00BF8B
:1024200080B500AF01F01AFC0A4801F0FDF901F097
:1024300041F8094B00221A60074B00225A60064BF4
:1024400000229A600120002101F076F9012001F0BC
:102450005FF880BD0038014010E000E080B483B038
:1024600000AF094B1B687B60074B00221A60074ACC
:102470007B6893420CBF01230023DBB218460C3764
:10248000BD465DF8047B7047C44900204AFE685889
:1024900080B400AF034A044B1A60BD465DF8047B6C
:1024A000704700BF4AFE6858C449002080B485B018
:1024B00000AF0023FB73294B5B6BBB60284B5B6851
:1024C0007B607B6803F00103002B10D07B6803F076
:1024D0000203002B0BD0234BDB6803F48063002B3B
:1024E00002D00623FB7332E00723FB732FE0BB68A7
:1024F000002B02DA0023FB7329E0BB6803F00053D2
:10250000002B02D00323FB7321E0BB6803F0804360
:10251000002B02D00423FB7319E0BB6803F0805347
:10252000002B02D00523FB7311E0BB6803F00063AE
:10253000002B02D00223FB7309E0BB6803F0806329
:10254000002B02D00123FB7301E00023FB73FB7B14
:1025500018461437BD465DF8047B704700380240CA
:10256000007000400028004080B588B000AF78605F
:102570001E481F494FF4807200F0DAFB1D481E49C7
:102580004FF4807200F0D4FB7B683B610023BB8278
:102590000023FB8200233B830023BB830C237B832C
:1025A0004FF48040012101F0C7F807F110031348F0
:1025B000194601F095F925233B7307237B7300230C
:1025C000BB730123FB7307F10C03184600F074FC86
:1025D0000A4840F22551012201F07AFA0748012108
:1025E00001F034FA2037BD4680BD00BF68470020A7
:1025F00080470020744700208048002000380140B8
:1026000080B584B000AF0346FB71104800F014FCA5
:102610000346002B14BF01230023FB73FFF7C4FE06
:10262000FB790A48194600F0A9FB0346BB73FFF784
:10263000C3FEFB7B002B05D0054840F22771012229
:1026400001F046FA1037BD4680BD00BF6847002044
:102650000038014080B582B000AF78600A4800F0D1
:10266000EBFB0346002B01D0002308E0FFF79CFEA4
:102670000548796800F0B0FBFFF79EFE012318467D
:102680000837BD4680BD00BF7447002080B582B0CA
:1026900000AF1A4840F2277101F062FA0346012B9D
:1026A00017D1174800F0C8FB0346002B06D013488B
:1026B00040F22771002201F00BFA0AE0FB1D1048DE
:1026C000194600F089FBFB799BB20C48194601F0D2
:1026D000DDF90A4840F2255101F042FA0346012B88
:1026E00008D1064801F0E4F90346DBB20548194673
:1026F00000F044FB0837BD4680BD00BF00380140F4
:1027000068470020744700201EF0040F0CBFEFF351
:102710000880EFF309808169004A104721270008EB
:1027200080B48BB000AF78607B681B687B627B688D
:102730005B683B627B689B68FB617B68DB68BB61B5
:102740007B681B697B617B685B693B617B689B691C
:10275000FB607B68DB69BB60FEE700BF80B400AF55
:10276000BD465DF8047B704780B400AFFEE700BF54
:1027700080B400AFFEE700BF80B400AFFEE700BF4B
:1027800080B400AFBD465DF8047B704780B400AFF5
:10279000BD465DF8047B704780B400AFBD465DF870
:1027A000047B704780B400AF044B1B680133034ABD
:1027B0001360BD465DF8047B704700BF8849002068
:1027C00080B400AFBD465DF8047B704780B400AFB5
:1027D000BD465DF8047B704780B400AFBD465DF830
:1027E000047B704780B400AFBD465DF8047B704742
:1027F00080B400AFBD465DF8047B704780B400AF85
:10280000BD465DF8047B704780B400AFBD465DF8FF
:10281000047B704780B400AFBD465DF8047B704711
:1028200080B400AFBD465DF8047B704780B400AF54
:10283000BD465DF8047B704780B400AFBD465DF8CF
:10284000047B704780B400AFBD465DF8047B7047E1
:1028500080B400AFBD465DF8047B704780B400AF24
:10286000BD465DF8047B704780B400AFBD465DF89F
:10287000047B704780B400AFBD465DF8047B7047B1
:1028800080B400AFBD465DF8047B704780B400AFF4
:10289000BD465DF8047B704780B400AFBD465DF86F
:1028A000047B704780B400AFBD465DF8047B704781
:1028B00080B400AFBD465DF8047B704780B400AFC4
:1028C000BD465DF8047B704780B400AFBD465DF83F
:1028D000047B704780B400AFBD465DF8047B704751
:1028E00080B400AFBD465DF8047B704780B400AF94
:1028F000BD465DF8047B704780B400AFBD465DF80F
:10290000047B704780B400AFBD465DF8047B704720
:1029100080B400AFBD465DF8047B704780B400AF63
:10292000BD465DF8047B704780B400AFBD465DF8DE
:10293000047B704780B400AFBD465DF8047B7047F0
:1029400080B400AFBD465DF8047B704780B400AF33
:10295000BD465DF8047B704780B400AFBD465DF8AE
:10296000047B704780B400AFBD465DF8047B7047C0
:1029700080B400AFBD465DF8047B704780B400AF03
:10298000BD465DF8047B704780B400AFBD465DF87E
:10299000047B704780B400AFBD465DF8047B704790
:1029A00080B400AFBD465DF8047B704780B400AFD3
:1029B000BD465DF8047B704780B400AFBD465DF84E
:1029C000047B704780B400AFBD465DF8047B704760
:1029D00080B400AFBD465DF8047B704780B400AFA3
:1029E000BD465DF8047B704780B400AFBD465DF81E
:1029F000047B704780B400AFBD465DF8047B704730
:102A000080B400AFBD465DF8047B704780B400AF72
:102A1000BD465DF8047B704780B400AFBD465DF8ED
:102A2000047B704780B400AFBD465DF8047B7047FF
:102A300080B400AFBD465DF8047B704780B400AF42
:102A4000BD465DF8047B704780B400AFBD465DF8BD
:102A5000047B704780B500AF144A144B1B6843F4E5
:102A6000807313601149114B9A68114B13408B60AE
:102A70000E4A0E4B1B6823F0885323F0011313609A
:102A80000A4A0A4B1B6823F480231360074A074B4A
:102A90009B6823F47D039360044B0022DA6000F00E
:102AA000B7F8044B4FF000629A6080BD00380240D6
:102AB0000CC0FF8800ED00E080B487B000AF0023B9
:102AC0007B6100233B610023FB600023BB6000238C
:102AD0007B60494B9B6803F00C037B617B690C2B8B
:102AE00064D801A252F823F01D2B0008AD2B00087A
:102AF000AD2B0008AD2B00083D2B0008AD2B0008C6
:102B0000AD2B0008AD2B0008452B0008AD2B0008AD
:102B1000AD2B0008AD2B00084D2B0008364B5B6831
:102B200003F460435B0B7B607B6801331A464FF410
:102B3000004393401A46314B1A6047E02F4B304A0E
:102B40001A6043E02D4B2F4A1A603FE02A4B9B68E6
:102B500003F470133B61284B9B6803F44003FB6054
:102B60003B699B0C284AD35CDBB23B61FB689B0D45
:102B70000133FB60204B9B6803F48033BB60BB6870
:102B8000002B09D13B691E4A02FB03F2FB68B2FB32
:102B9000F3F31A4A136019E03B691A4A02FB03F285
:102BA000FB68B2FBF3F3154A13600FE0124B5B684E
:102BB00003F460435B0B7B607B6801331A464FF480
:102BC000004393401A460D4B1A6000BF0A4B9B68A6
:102BD00003F0F0031B090D4AD35CDBB27B61074BAA
:102BE0001A687B6922FA03F3044A13601C37BD4656
:102BF0005DF8047B704700BF0038024008000020E9
:102C00000024F400001BB7000C0000201800002076
:102C100080B483B000AF00237B6000233B60414A57
:102C2000404B1B6843F4803313603E4B1B6803F436
:102C300000333B607B6801337B603B68002B03D132
:102C40007B68B3F5A04FF0D1364B1B6803F400331B
:102C5000002B02D001233B6001E000233B603B6876
:102C6000012B5AD1304A304B1B6843F004031360E8
:102C70002D4A2D4B1B6843F0020313602A4A2A4B4E
:102C80001B6843F001031360264A264B5B6A43F03E
:102C900080535362254B4FF400621A6000BF234BF0
:102CA0005B6803F01003002BF9D11E4A1D4B9B6893
:102CB00093601C4A1B4B9B6893601A4A194B9B6894
:102CC0009360184A174B9B6823F47D039360154A61
:102CD000144B9B6843F40D039360124A114B1B681D
:102CE00043F08073136000BF0E4B1B6803F000734A
:102CF000002BF9D00B4A0B4B9B6823F00303936026
:102D0000084A084B9B6843F00303936000BF054BE0
:102D10009B6803F00C030C2BF9D10C37BD465DF812
:102D2000047B704700380240003C024000700040C5
:102D300080B485B000AFF860B9601346FB80FB68D3
:102D4000002B13D0BB68002B10D0FB88002B0DD0BC
:102D5000FB68BA681A60FB68FA889A80FB680022F0
:102D6000DA80FB6800221A81022300E00323184660
:102D70001437BD465DF8047B704700BF80B582B054
:102D800000AF78600B46FB707B68002B1FD0786823
:102D900000F068F80346002B19D17B6819687B683E
:102DA000DB881A467B681B8913447A68928893FBF8
:102DB000F2F002FB00F29B1A0B44FA781A707B685F
:102DC0001B8901339AB27B681A81022300E0032336
:102DD00018460837BD4680BD80B582B000AF786028
:102DE00039607B68002B22D0786800F025F8034614
:102DF000002B1CD17B681B687A68D28813441A7830
:102E00003B681A707B68DB8801337A68928893FB91
:102E1000F2F102FB01F29B1A9AB27B68DA807B68BE
:102E20001B89013B9AB27B681A81022300E00323CD
:102E300018460837BD4680BD80B483B000AF7860C7
:102E40007B68002B07D07B681B89002B01D10123F5
:102E500002E0002300E0032318460C37BD465DF86E
:102E6000047B704780B483B000AF78607B68002B30
:102E700009D07B689A887B681B899A4201D101231B
:102E800002E0002300E0032318460C37BD465DF83E
:102E9000047B704780B483B000AF7860054A7B68DC
:102EA00043F0BF6343F40033D3600C37BD465DF895
:102EB000047B704700ED00E080B485B000AF78601F
:102EC0000023FB730023BB730F237B737B68DB78CA
:102ED000002B38D0264BDB68DB4303F4E0631B0A8E
:102EE000FB73FB7BC3F10403BB737A7BFB7B42FA6E
:102EF00003F37B737B685B781A46BB7B02FA03F3B0
:102F0000FB737B689A787B7B1340DAB2FB7B1343BD
:102F1000FB73FB7B1B01FB73164A7B681B78134416
:102F2000FA7B83F80023134A7B681B785B09DBB2CA
:102F300018467B681B7803F01F03012101FA03F395
:102F400042F820300FE00B497B681B785B09DBB24D
:102F500018467B681B7803F01F0301229A4000F19A
:102F6000200341F823201437BD465DF8047B7047E9
:102F700000ED00E000E100E080B483B000AF7860D5
:102F8000396007493B6823F0604323F07F037A6888
:102F900013438B600C37BD465DF8047B704700BF60
:102FA00000ED00E080B400AF034B1B681B0C18461B
:102FB000BD465DF8047B7047002004E080B400AF9C
:102FC000044B1B68C3F30B031846BD465DF8047B36
:102FD000704700BF002004E080B500AF074B5B687E
:102FE00003F00203002B07D000F054F8034B044A0F
:102FF0001A61024B034A1A6180BD00BF003C0240C7
:10300000BFAE9D8C1615141380B400AF044A044B58
:103010005B6843F002035360BD465DF8047B704774
:10302000003C024080B584B000AF78600423FB739D
:103030004FF4004000F080F80346FB73FB7B042B49
:1030400020D1134A124B5B6843F400735360104A5B
:103050000F4B5B6843F0080353607B6800221A60E3
:103060004FF4004000F068F80346FB73084A084B31
:103070005B6823F008035360054A054B5B6823F443
:1030800000735360FB7B18461037BD4680BD00BF00
:10309000003C024080B400AF074B5B6803F00103C3
:1030A000002B05D0044B054ADA60034B044ADA6072
:1030B000BD465DF8047B7047003C0240EFCDAB8914
:1030C0000504030280B483B000AF7860034A7B68D4
:1030D00093610C37BD465DF8047B7047003C0240AD
:1030E00080B483B000AF0423FB71124B9B6903F0E3
:1030F0000103002B02D00123FB7113E00D4B9B69F0
:1031000003F48073002B02D00223FB710AE0094B09
:103110009B6903F4F053002B02D00323FB7101E001
:103120000423FB71FB7918460C37BD465DF8047B20
:10313000704700BF003C024080B584B000AF7860AB
:103140000423FB73FFF7CCFF0346FB7306E0FFF796
:10315000C7FF0346FB737B68013B7B60FB7BDBB2F5
:10316000012B02D17B68002BF1D17B68002B01D1B0
:103170000523FB73FB7BDBB218461037BD4680BDD1
:1031800080B582B000AF78607B68344A934208D142
:103190000120012100F0EEFA0120002100F0EAFAFE
:1031A00059E07B682E4A934208D10220012100F0A9
:1031B000E1FA0220002100F0DDFA4CE07B68294AA8
:1031C000934208D10420012100F0D4FA0420002108
:1031D00000F0D0FA3FE07B68234A934208D10820F0
:1031E000012100F0C7FA0820002100F0C3FA32E004
:1031F0007B681E4A934208D11020012100F0BAFAE0
:103200001020002100F0B6FA25E07B68184A9342AE
:1032100008D14020012100F0ADFA4020002100F04B
:10322000A9FA18E07B68134A934208D18020012153
:1032300000F0A0FA8020002100F09CFA0BE07B68EF
:103240000D4A934207D12020012100F093FA20205B
:10325000002100F08FFA0837BD4680BD0000024013
:103260000004024000080240000C0240001002402E
:1032700000180240001C02400014024080B487B0D5
:1032800000AF7860396000237B6100233B6100233D
:10329000FB600023BB6000237B6181E07B6901222E
:1032A00002FA03F33B613B681A683B691340FB6019
:1032B000FA683B699A4270D17B681B68BB607B6986
:1032C0005B001A4603239340DB43BA681340BB609C
:1032D0003B681B791A467B695B0002FA03F3BA6804
:1032E0001343BB607B68BA681A603B681B79012B8B
:1032F00003D03B681B79022B35D17B689B68BB6090
:103300007B695B001A4603239340DB43BA68134092
:10331000BB603B685B791A467B695B0002FA03F38A
:10332000BA681343BB607B68BA689A607B689B8805
:103330009BB2BB607B699BB21A4601239340DB437F
:10334000BA681340BB603B689B791A467B699BB2A5
:1033500002FA03F39BB21A46BB681343BB60BB6817
:103360009AB27B689A807B68DB68BB607B699BB2A2
:103370005B00032202FA03F3DB43BA681340BB602D
:103380003B68DB791A467B695B0002FA03F3BA6893
:103390001343BB607B68BA68DA607B6901337B6189
:1033A0007B690F2B7FF67AAF1C37BD465DF8047B37
:1033B000704700BF80B485B000AF78600B467B805B
:1033C0000023FB737B681B8A9AB27B8813409BB2F5
:1033D000002B02D00123FB7301E00023FB73FB7B76
:1033E00018461437BD465DF8047B704780B483B03F
:1033F00000AF78600B467B807B687A881A830C3735
:10340000BD465DF8047B704780B483B000AF786040
:103410000B467B807B687A885A830C37BD465DF803
:10342000047B704780B485B000AF78600B467B802A
:1034300013467B700023FB600023BB607B787A8897
:1034400002F0070292009340FB607B88DB089BB28E
:1034500018467B88DB089BB21A467B68083253F813
:1034600022207B8803F007039B0019460F238B4023
:10347000DB4302EA03017B6800F1080243F82210F3
:103480007B88DB089BB21A467B68083253F82220FF
:10349000FB681343BB607B88DB089BB21A467B68E2
:1034A0000832B96843F822101437BD465DF8047B32
:1034B000704700BF80B400AF134A134B1B6843F43E
:1034C000807313601049104B9A68104B13408B6047
:1034D0000D4A0D4B1B6823F0885323F00113136032
:1034E000094A094B1B6823F480231360064A064BE4
:1034F0009B6823F47D039360034B0022DA60BD4692
:103500005DF8047B704700BF003802400CC0FF88A4
:1035100080B485B000AF78600023FB60094B9B68E6
:10352000FB60FB6823F00303FB60FA687B681343CE
:10353000FB60044AFB6893601437BD465DF8047B6A
:10354000704700BF0038024080B489B000AF786097
:103550000023FB610023BB6100237B6100233B61EF
:103560000023FB600023BB605F4B9B6803F00C03F0
:10357000FB61FB690C2B65D801A252F823F000BF58
:10358000B5350008453600084536000845360008C0
:10359000D535000845360008453600084536000890
:1035A000DD35000845360008453600084536000878
:1035B000E53500084C4B5B6803F460435B0BBB6074
:1035C000BB6801331A464FF4004393401A467B68A8
:1035D0001A6047E07B68454A1A6043E07B68444ACA
:1035E0001A603FE0404B9B6803F47013BB613E4B95
:1035F0009B6803F440037B61BB699B0C3D4AD35C31
:10360000DBB2BB617B699B0D01337B61364B9B68F1
:1036100003F480333B613B69002B09D1BB69334A1A
:1036200002FB03F27B69B2FBF3F27B681A6019E0DC
:10363000BB692F4A02FB03F27B69B2FBF3F27B68A2
:103640001A600FE0284B5B6803F460435B0BBB60C0
:10365000BB6801331A464FF4004393401A467B6817
:103660001A6000BF204B9B6803F0F003FB61FB690D
:103670001B09FB61204AFB6913441B78DBB2FB602A
:103680007B681A68FB68DA407B685A60164B9B6857
:1036900003F4E063FB61FB691B0AFB61164AFB69EB
:1036A00013441B78DBB2FB607B685A68FB68DA4026
:1036B0007B689A600C4B9B6803F46053FB61FB6969
:1036C000DB0AFB610C4AFB6913441B78DBB2FB602D
:1036D0007B685A68FB68DA407B68DA602437BD464D
:1036E0005DF8047B704700BF003802400024F400FE
:1036F000001BB700280000203400002080B483B0F5
:1037000000AF78600B46FB70FB78002B06D00949B0
:10371000084BDA697B681343CB6106E00549054B2A
:10372000DA697B68DB431340CB610C37BD465DF83B
:10373000047B70470038024080B483B000AF7860EB
:103740000B46FB70FB78002B06D00949084B1A6A20
:103750007B6813430B6206E00549054B1A6A7B68D8
:10376000DB4313400B620C37BD465DF8047B7047AA
:103770000038024080B483B000AF78600B46FB7025
:10378000FB78002B06D00949084B1A697B68134364
:103790000B6106E00549054B1A697B68DB43134062
:1037A0000B610C37BD465DF8047B70470038024062
:1037B00080B483B000AF78600B46FB70FB78002BC1
:1037C00006D00949084B5A697B6813434B6106E0F0
:1037D0000549054B5A697B68DB4313404B610C3745
:1037E000BD465DF8047B70470038024080B483B06A
:1037F00000AF78600B46FB70FB78002B06D00949C0
:10380000084B9A697B6813438B6106E00549054BB9
:103810009A697B68DB4313408B610C37BD465DF8CA
:10382000047B70470038024080B582B000AF7860FA
:103830007B68264A93420AD14FF480400121FFF76A
:10384000B7FF4FF480400021FFF7B2FF3AE07B68FA
:103850001F4A93420AD14FF400300121FFF7C6FFFF
:103860004FF400300021FFF7C1FF2BE07B68194ABD
:1038700093420AD14FF480200121FFF7B7FF4FF4A4
:1038800080200021FFF7B2FF1CE07B68124A9342C0
:103890000AD14FF400200121FFF7A8FF4FF40020C8
:1038A0000021FFF7A3FF0DE07B680C4A934209D18A
:1038B0004FF480100121FFF799FF4FF48010002191
:1038C000FFF794FF0837BD4680BD00BF00380140B8
:1038D0000044004000480040004C004000500040C0
:1038E00080B58AB000AF7860396000237B62002326
:1038F0003B620023FB610023BB617B681B8A9BB298
:103900007B627B6A23F440537B623B68DB881A4608
:103910007B6A13437B627B6A9AB27B681A827B68FC
:103920009B899BB27B627B6A23F4B05323F00C0328
:103930007B623B689A883B681B8913439AB23B6859
:103940005B8913439BB21A467B6A13437B627B6A93
:103950009AB27B689A817B689B8A9BB27B627B6A06
:1039600023F440737B623B689B891A467B6A13434E
:103970007B627B6A9AB27B689A8207F108031846D9
:10398000FFF7E2FD7B682F4A934202D17B693B62DD
:1039900001E03B693B627B689B899BB29BB21BB297
:1039A000002B0CDA3A6A13469B0013449A001A441F
:1039B0003B681B685B00B2FBF3F3FB610BE03A6A08
:1039C00013469B0013449A001A443B681B689B00F3
:1039D000B2FBF3F3FB61FB691B4AA2FB03235B0908
:1039E0001B017B627B6A1B09642202FB03F3FA69F9
:1039F000D31ABB617B689B899BB29BB21BB2002B25
:103A00000CDABB69DB0032330F4AA2FB03235B09EC
:103A100003F007037A6A13437B620BE0BB691B0167
:103A20003233094AA2FB03235B0903F00F037A6ACE
:103A300013437B627B6A9AB27B681A812837BD4642
:103A400080BD00BF003801401F85EB5180B483B0BA
:103A500000AF78600B46FB70FB78002B08D07B68CA
:103A60009B899BB243F400539AB27B689A8107E02A
:103A70007B689B899BB223F400539AB27B689A813E
:103A80000C37BD465DF8047B704700BF80B483B03F
:103A900000AF78600B467B807B88C3F308039AB243
:103AA0007B689A800C37BD465DF8047B704700BF89
:103AB00080B483B000AF78607B689B889BB2C3F30F
:103AC00008039BB218460C37BD465DF8047B70476F
:103AD00080B487B000AF78600B467B8013467B7064
:103AE00000233B610023FB600023BB6000237B615C
:103AF0007B687B617B88DBB25B09DBB23B617B88E7
:103B000003F01F03FB60FB68012202FA03F3BB60B2
:103B10003B69012B03D17B690C337B6109E03B6975
:103B2000022B03D17B6910337B6102E07B69143384
:103B30007B617B78002B06D07B697A691168BA6853
:103B40000A431A6006E07B697A691168BA68D24351
:103B50000A401A601C37BD465DF8047B704700BF01
:103B600080B487B000AF78600B467B800023FB6099
:103B700000237B610023BB600023FB747B88DBB2E6
:103B80005B09DBB2BB607B8803F01F037B617B6951
:103B9000012202FA03F37B61BB68012B07D17B682A
:103BA0009B899BB21A467B6913407B6111E0BB681D
:103BB000022B07D17B681B8A9BB21A467B69134094
:103BC0007B6106E07B689B8A9BB21A467B69134047
:103BD0007B617B881B0A9BB2FB60FB68012202FAB7
:103BE00003F3FB607B681B889BB21A46FB6813409B
:103BF000FB607B69002B05D0FB68002B02D0012302
:103C0000FB7401E00023FB74FB7C18461C37BD46A7
:103C10005DF8047B704700BF002103E00A4B5B584E
:103C20004350043109480A4B42189A42F6D3094AD4
:103C300002E0002342F8043B074B9A42F9D3FEF717
:103C400009FFFCF7B7FA7047504F0008000000204A
:103C50002405002024050020C449002080B582B03E
:103C600000AF00237B600BE0114A7B681B0113440B
:103C700008331B681846FFF783FA7B6801337B60C3
:103C80007B68032BF0D900233B600BE0094A3B68BB
:103C90001B01134408331B681846FFF771FA3B6891
:103CA00001333B603B68012BF0D90837BD4680BD2E
:103CB000104E0008504E000880B584B000AF0120BF
:103CC0000121FFF71BFD04200121FFF717FD002351
:103CD000FB6010E0254AFB681B0113440833196898
:103CE000FB681B01214A134408461946FFF7C6FA30
:103CF000FB680133FB60FB68032BEBD90023BB603F
:103D000010E01B4ABB681B01134408331968BB68E9
:103D10001B01174A134408461946FFF7AFFABB6860
:103D20000133BB60BB68012BEBD900237B6017E03C
:103D30000F4A7B681B011344083318680C4A7B68E0
:103D40001B0113440833D988094A7B681B011344BB
:103D500008331B791A46FFF765FB7B6801337B60EC
:103D60007B68012BE4D91037BD4680BD104E00089A
:103D7000504E000880B500AF06484FF48061FFF751
:103D800019FB0346002B14BF01230023DBB21846A6
:103D900080BD00BF000802401FB505460848006806
:103DA000C06812B9074C224600E0074C8DE81200AB
:103DB000029206491A462B4600F00AF800F0DCFB96
:103DC000A4000020AB4E0008704E00087D4E000895
:103DD0000EB403B5014603AB054853F8042B006845
:103DE000019300F053F802B05DF804EB03B07047A4
:103DF000A400002010B50A44441E914208D014F8D3
:103E0000013F0878834201D0181A10BD0131F4E750
:103E1000002010BD10B5431E0A44914204D011F891
:103E2000014B03F8014FF8E710BD034602449342EB
:103E300002D003F8011BFAE77047936810B5013B05
:103E4000002B936009DA9469A34202DBCBB20A2B00
:103E500003D1BDE8104000F0CFBA1368581C1060C1
:103E60001970C8B210BDF8B506460F461446D518ED
:103E7000AC4208D0304614F8011B3A46FFF7DDFF8C
:103E8000431CF5D100E00020F8BD00002DE9F0430F
:103E90009DB00D4690460393064618B183690BB951
:103EA00000F05EFC754B9D4201D1756808E0744BD3
:103EB0009D4201D1B56803E0724B9D4208BFF56891
:103EC000AB891C070AD52B6943B100230993202332
:103ED0008DF8293030238DF82A3041E030462946CC
:103EE00000F0DEFA0028F0D04FF0FF30C2E0039A75
:103EF0000134111D12680391002ABBBF524243F0E6
:103F0000020307920792B8BF049323782E2B7BD02D
:103F1000DFF8808121784046032200F0F5FC38B1BB
:103F2000049AC8EB000040238340134304930134F8
:103F300021785548062204F101088DF8281000F078
:103F4000E3FC002800F08580504B002B78D1039BC8
:103F5000073323F0070308330393099B3B4409937A
:103F600043461C4613F8012B1AB9B4EB08090ED0CE
:103F700002E0252AF5D1F8E73046294642464B466D
:103F8000FFF771FF013070D0099B4B4409932378F0
:103F9000002B6AD000234FF0FF3204930793059261
:103FA00006938DF853301A9304F101084446DFF864
:103FB000E89021784846052200F0A6FC08F10108A7
:103FC000049B30B1C9EB00000122824013430493EB
:103FD000ECE7D80644BF20228DF85320190744BFD0
:103FE0002B228DF8532022782A2A80D02346079945
:103FF0001C4622780133303A092A03D80A2000FBF4
:104000000121F5E7079180E763782A2B0AD1039B0A
:1040100002341A1D1B680392002BB8BF4FF0FF3308
:10402000059375E7611C00220C4623780131303B73
:10403000092B03D80A2000FB0232F5E7059267E757
:1040400003AB0093304604A92A46114BAFF300801E
:1040500007E003AB0093304604A92A460C4B00F05E
:1040600093F8421C07467FF478AFAB895B063FF5B7
:104070003BAF09981DB0BDE8F08300BFE84E0008D3
:10408000084F0008284F0008BE4E0008000000003E
:10409000673E0008BA4E0008B44E00082DE9F84308
:1040A00091461F468A680B6906469342B8BF13467D
:1040B000C9F8003091F843200C46DDF8208012B199
:1040C0000133C9F800302368990642BFD9F800309F
:1040D0000233C9F80030256815F006051CD094F8A5
:1040E00043302268003318BF012392061FD5E11820
:1040F000302081F843005A1C94F8451022440233C2
:1041000082F8431013E03046394604F119020123C6
:10411000C047013007D00135E368D9F800209B1A69
:104120009D42F0DBDBE74FF0FF30BDE8F88330461F
:10413000394604F14302C0470130F4D02268D9F86F
:104140000050E36802F00602042A08BF5D1B2269E2
:10415000A3680CBF25EAE57500259342C4BF9B1AEE
:10416000ED184FF00009A9450ADA3046394604F146
:104170001A020123C0470130D5D009F10109F2E745
:104180000020BDE8F88300002DE9FF410C461746EA
:10419000227E98466E2A06460A9B01F1430100F0F2
:1041A000B08012D8632A23D00AD8002A00F0BD803C
:1041B000582A40F0CC8084F84520DFF804E257E02C
:1041C000642A1ED0692A1CD0C1E0732A00F0B18095
:1041D00009D86F2A2ED0702A40F0B980226842F0A8
:1041E000200222603FE0752A24D0782A3BD0AEE03E
:1041F0001A6804F14205111D1960136884F84230F1
:10420000A9E020681A6810F0800F02D0101D186015
:1042100008E010F0400F02F10400186002D0B2F97B
:10422000003000E01368002B3EDA2D225B4284F858
:10423000432039E020681A6810F0800F02D0101D6A
:10424000186007E010F0400F02F10400186001D080
:10425000138800E01368227EDFF864E16F2A0CBF48
:1042600008220A221CE07822DFF858E184F8452071
:104270002268186812F0800F00F104051D6003D158
:10428000550601D5038800E00368D00744BF42F01B
:10429000200222601BB9226822F020022260102234
:1042A000002084F8430002E0DFF814E10A22656888
:1042B000002DA8BF2068A560A4BF20F004002060E6
:1042C00003B965B10D46B3FBF2F002FB10331EF8E3
:1042D000033005F8013D03460028F4D100E00D4607
:1042E000082A0BD12368DA0708D5236962689A4245
:1042F000DEBF302305F8013C05F1FF35491B216184
:104300002EE025681A6815F0800F606903D0151D2E
:104310001D60136808E015F0400F02F104051D60F0
:10432000136801D0188000E01860002323610D4657
:1043300016E01A68111D1960156800212846626888
:1043400000F0E2FA08B1401B6060636804E004F129
:10435000420584F8422001232361002384F843307E
:10436000CDF800803046214603AA3B46FFF796FE73
:10437000013002D14FF0FF301FE0304639462A4667
:104380002369C0470130F5D023689B0705D4E06856
:10439000039B9842B8BF18460FE00025E368039AD4
:1043A0009B1A9D42F3DA3046394604F11902012383
:1043B000C0470130DED00135F0E704B0BDE8F08140
:1043C000C54E0008D64E00080FB40A4B13B51C6842
:1043D00024B1A36913B9204600F0C2F905AB204609
:1043E000A168049A0193FFF751FD02B0BDE81040A7
:1043F00004B07047A400002070B50D461446064670
:1044000018B183690BB900F0ABF9224B9C4201D182
:10441000746808E0204B9C4201D1B46803E01F4B54
:104420009C4208BFF468A369A360A3891A0709D551
:1044300023693BB123682069EDB2181A6369984279
:104440000FDB08E03046214600F02AF80028F1D0C2
:104450004FF0FF3070BD3046214600F017F90028BC
:10446000F6D1A3680130013BA36023685A1C226087
:104470001D706369984204D0A389DB0707D50A2D14
:1044800005D13046214600F001F90028E0D1284648
:1044900070BD00BFE84E0008084F0008284F000814
:1044A000314B70B51D6806460C4625B1AB6913B992
:1044B000284600F055F92D4B9C4201D16C6808E06C
:1044C0002B4B9C4201D1AC6803E02A4B9C4208BFB5
:1044D000EC68A3899AB211071DD4D50602D409222B
:1044E000326038E0500712D5616B41B104F14403EA
:1044F000994202D0304600F015FA00236363A38985
:1045000023F02403A3810023636023692360A3892C
:1045100043F00803A38123694BB9A38903F42073F3
:10452000B3F5007F03D03046214600F0A1F9A389FE
:1045300013F0010205D00022A26062695242A2611A
:1045400003E0990758BF6269A26022694AB903F083
:10455000800080B230B143F04003A3814FF0FF30C0
:1045600070BD002070BD00BFA4000020E84E000810
:10457000084F0008284F000808B5062000F0A4FAEC
:104580000120FBF71DFF8A892DE9F0410546100740
:104590000C4657D44B68002B02DC0B6C002B18DD4B
:1045A000E66AB6B102F48052002392B22F682B6003
:1045B0000AB1626D10E0216A28460123B047411C10
:1045C000024609D12B683BB11D2B01D0162B46D1D9
:1045D0002F600020BDE8F081A3895B0705D56368E3
:1045E000D21A636B0BB1236CD21AE66A00232846F9
:1045F000216AB047461CA38905D12A681AB11D2A31
:1046000001D0162A19D1002262602269D9042260E1
:1046100004D5421C01D12B6803B96065616B2F6022
:104620000029D6D004F14403994202D0284600F074
:1046300079F900206063BDE8F08143F04003A38175
:10464000BDE8F0810F69002FC3D093070E680CBF3F
:104650004B690023C7EB06080F608B6012E0A3894B
:104660004FF0FF3043F04003A381BDE8F0812846BE
:10467000216A3A464346A66AB0470028EFDD074460
:10468000C0EB0808B8F1000FF1DCA2E738B50B6900
:1046900005460C46DBB118B183690BB900F060F830
:1046A0000C4B9C4201D16C6808E00B4B9C4201D141
:1046B000AC6803E0094B9C4208BFEC68B4F90C30CD
:1046C0002BB128462146BDE83840FFF75CBF0020EB
:1046D00038BD00BFE84E0008084F0008284F00080A
:1046E000014900F0A7B800BF8D46000810B5044688
:1046F000002303604360836081814366C28103615C
:104700004361836119465C300822FFF78EFB054B3D
:1047100024626362044BA362044BE362044B236391
:1047200010BD00BF014B0008234B00085B4B000885
:104730007F4B000870B568234D1E5D430E4605F1A2
:10474000740100F033F9044640B1002180E84200D2
:104750000C30A06005F16802FFF767FB204670BDD2
:10476000836910B5044633BB8364C3640365124B8D
:10477000124A1B688262984204BF0123836100F0E1
:104780001FF86060204600F01BF8A060204600F093
:1047900017F80421E06000226068FFF7A7FFA06817
:1047A00009210122FFF7A2FFE06812210222FFF790
:1047B0009DFF0123A36110BDB04E0008E146000833
:1047C000F8B51B4B07461E68B36913B93046FFF7AF
:1047D000C7FF4836B4687368013B04D4B4F90C5081
:1047E00075B16834F8E733682BB938460421FFF710
:1047F000A1FF306008B13668ECE70C233B60F8BDE0
:104800004FF6FF73E3810123A38165662560A560F0
:10481000656025616561A56104F15C002946082297
:10482000FFF703FB6563A563A564E5642046F8BD57
:10483000B04E00082DE9F8438046894600F148044F
:10484000002694B1A5686768013F0CD4AB89012BA1
:1048500007D9B5F90E30013303D040462946C84781
:1048600006436835F0E72468EBE73046BDE8F88397
:10487000F0B58B8991B09D0706460C4625D4B1F959
:104880000E10002908DAA389002513F0800F14BF49
:1048900040274FF480670DE001AA00F097F9002847
:1048A000F1DB029D4FF4806705F47045A5F50051DA
:1048B0004D424D413046394600F078F860B9A38941
:1048C0009A051DD443F00203A38104F1470323603A
:1048D00023610123636113E00A4BB362A389206063
:1048E00043F08003A381206167614DB13046B4F984
:1048F0000E1000F07DF918B1A38943F00103A381E4
:1049000011B0F0BDE146000810B5C9B202449042B2
:10491000034605D01C7801308C42F8D1184610BDF2
:10492000002010BD30B500293CD051F8042C0B1FDD
:104930001D49002AB8BF9B180A680C4612B95A6074
:104940000B6030BD93420DD219685818904201BFD8
:104950005A5852181A60426823605A6030BD994212
:1049600003D80A4651680029F9D1146815199D42E7
:104970000AD11B682344D0188842136012D10868FA
:10498000034413604B680CE002D90C23036030BD74
:104990001C681819884201BF086849680019186026
:1049A0005960536030BD00BF8449002070B5CC1CF5
:1049B00024F0030408340C2C38BF0C24002C0646C9
:1049C00003DA0C233360002070BD8C42F9D3204AF7
:1049D000136810461946A1B10A68121B0ED40B2A9F
:1049E00003D90A608B188C501FE08B420BBF5A68AA
:1049F0004A6802605A6018BF0B4616E00B464968C9
:104A0000E9E7144D2B681BB9304600F025F8286003
:104A10003046214600F020F8421C0346D1D0C51C88
:104A200025F0030585420AD11C6003F10B001A1D15
:104A300020F00700821A0AD05142995070BD3046CA
:104A4000E91A00F009F80130BBD02B46ECE770BD45
:104A5000844900208049002038B5064C00230546D3
:104A600008462360FBF7E0FC431C02D1236803B136
:104A70002B6038BDC04900201F2938B504460D46BB
:104A800004D9162303604FF0FF3038BD426C12B1D9
:104A900052F821304BB9204600F030F82A46014642
:104AA0002046BDE8384000F017B8012B0AD0591C49
:104AB00003D116230360012038BD002442F82540AD
:104AC00028469847002038BD024B01461868FFF77A
:104AD000D3BF00BFA400002038B5074C0023054613
:104AE000084611462360FBF759FC431C02D123689A
:104AF00003B12B6038BD00BFC0490020FBF746BCA6
:104B000010B50C46B1F90E1000F094F80028ABBFB8
:104B1000636DA3891B1823F48053ACBF6365A38125
:104B200010BD2DE9F0411D468B890746DB050C467B
:104B3000164605D5B1F90E100022022300F068F8E0
:104B4000A389384623F48053A381B4F90E1032466A
:104B50002B46BDE8F04100F017B810B50C46B1F98E
:104B60000E1000F055F8431CA38915BF606523F4AF
:104B7000805343F48053A38118BFA38110BDB1F9C2
:104B80000E1000F013B8000038B5074C05460020A1
:104B90002060084611461A46FBF72AFC431C02D146
:104BA000236803B12B6038BDC049002038B5064CDE
:104BB0000023054608462360FBF748FC431C02D14E
:104BC000236803B12B6038BDC049002038B5074CBD
:104BD00000230546084611462360FBF743FC431CAF
:104BE00002D1236803B12B6038BD00BFC04900204B
:104BF00038B5064C0023054608462360FBF742FC07
:104C0000431C02D1236803B12B6038BDC04900208A
:104C100038B5074C054600202060084611461A4664
:104C2000FBF73CFC431C02D1236803B12B6038BD69
:104C3000C049002038B5074C0546002020600846D2
:104C400011461A46FBF7C6FB431C02D1236803B189
:104C50002B6038BDC0490020F8B500BFF8BC08BCC7
:104C60009E467047F8B500BFF8BC08BC9E4670472A
:104C700001B40248844601BC604700BF9D0100208A
:104C8000726573657420726561736F6E20256C7533
:104C90004E5253543A2564200A0000006769746834
:104CA000617368203D2025580A000000676974641C
:104CB000617465203D2025732025750A00000000E1
:104CC000323031362D31302D323600007372632F81
:104CD00073797363616C6C732E6300007076526538
:104CE0007475726E000000006D6F64756C65732FD3
:104CF0007270632F7372632F636C69656E742F67B4
:104D0000656E6572617465645F6170702F525043A7
:104D10005F5452414E534D495353494F4E5F6D635B
:104D2000753271742E6300005250435F5452414EED
:104D3000534D495353494F4E5F6765745F616E73BE
:104D40007765725F6C656E67746828627566666504
:104D5000722C2073697A655F6279746573292E728B
:104D60006573756C74203D3D205250435F5355432D
:104D700043455353000000005250435F5452414E8C
:104D8000534D495353494F4E5F6765745F616E736E
:104D90007765725F6C656E677468286275666665B4
:104DA000722C2073697A655F6279746573292E733A
:104DB000697A65203C3D2073697A655F6279746524
:104DC00073000000FB95D8533F82EDF2B4163F9D6F
:104DD000F4D2CB810000000063727973426F6F746C
:104DE000000000007379735F6D616C6C6F6300008D
:104DF0005250435F5452414E534D495353494F4EC5
:104E00005F70617273655F616E7377657200000039
:104E100080000000010100000008024000000000C6
:104E200040000000010100000008024000000000F6
:104E30000004000000020002000802400000000020
:104E4000000200000103000000000240000000001A
:104E500000040000020301000000024007000A00F5
:104E600000020000020300000000024007000900E9
:104E70002C2066756E6374696F6E3A2000617373DF
:104E8000657274696F6E2022257322206661696CD9
:104E900065643A2066696C6520222573222C206C9B
:104EA000696E65202564257325730A0043000000A0
:104EB00044000020232D302B2000686C4C006566D8
:104EC000674546470030313233343536373839415B
:104ED0004243444546003031323334353637383971
:104EE000616263646566000000000000000000006D
:104EF00000000000000000000000000000000000B2
:104F000000000000000000000000000000000000A1
:104F10000000000000000000000000000000000091
:104F20000000000000000000000000000000000081
:104F30000000000000000000000000000000000071
:084F4000000000000000000069
:044F480065010008F7
:044F4C004101000817
:104F500000600008006000080048E801030406083B
:104F60000C101820300000000000000000000000BD
:104F70000102030406070809030406080C101820A0
:104F800030000000000000000102030401020304DD
:104F90000607080900000000E84E0008084F000856
:104FA000284F000800000000000000000000000082
:104FB00000000000AC4E00080000000000000000EF
:104FC00000000000000000000000000000000000E1
:104FD00000000000000000000000000000000000D1
:104FE00000000000000000000000000000000000C1
:104FF000000000004400002080B485B000AF0346EC
:10500000FB710423FB73FB79002B14D0104B114A66
:105010009A600F4B104A9A600D4A0D4B1B6843F083
:10502000100313600A4B1B6803F01003002B08D118
:105030000323FB7305E0064A054B1B6823F01003AE
:105040001360FB7B18461437BD465DF8047B704740
:10505000003C024037261504FDFCFBFA80B584B005
:1050600000AF786039600423FB734FF4004000F018
:10507000DDF90346FB73FB7B042B2FD11A4A1A4B35
:105080005B6843F400435360174A174B5B6843F473
:1050900000735360144A144B5B6843F00803536079
:1050A0007B6800221A603B6800221A604FF40040BF
:1050B00000F0BCF90346FB730B4A0B4B5B6823F013
:1050C00008035360084A084B5B6823F4007353607D
:1050D000054A054B5B6823F400435360FB7B18468D
:1050E0001037BD4680BD00BF003C024080B584B093
:1050F00000AF786039600023FB600423FB724FF03F
:10510000E0224FF0E0239B6843F0010393604FF4EB
:10511000004000F08BF90346FB72FB7A042B2ED182
:105120001D4A1D4B5B6843F4806353601A4A1A4B57
:105130005B6843F0080353600CE0FB689A007B68EF
:10514000134419463B681A1D3A601B680B60FB68E4
:105150000133FB60FB681F2BEFD94FF4004000F0D8
:1051600065F90346FB720C4A0B4B5B6823F008039E
:105170005360094A084B5B6823F4806353604FF027
:10518000E0224FF0E0239B6823F001039360FB7A59
:1051900018461037BD4680BD003C024080B586B041
:1051A00000AFF860B9607A603B6000237B61042344
:1051B000FB744FF0E0224FF0E0239B6843F00103C3
:1051C00093604FF4004000F031F90346FB74FB7C20
:1051D000042B4DD12D4A2D4B5B6843F400435360A3
:1051E0002A4A2A4B5B6843F480635360274A274B63
:1051F0005B6843F0080353600CE07B699A00FB682E
:1052000013441946BB681A1DBA601B680B607B69A2
:1052100001337B617B691F2BEFD900237B610CE09D
:105220007B699A007B68134419463B681A1D3A60F3
:105230001B680B607B6901337B617B691F2BEFD996
:105240004FF4004000F0F2F80346FB740F4A0F4B96
:105250005B6823F0080353600C4A0C4B5B6823F433
:1052600080635360094A094B5B6823F40043536031
:105270004FF0E0224FF0E0239B6823F0010393609E
:10528000FB7C18461837BD4680BD00BF003C02407D
:1052900080B584B000AF78600423FB734FF0E02248
:1052A0004FF0E0239B6843F0010393604FF400400C
:1052B00000F0BCF80346FB73FB7B042B26D11A4A93
:1052C000194B5B6843F400735360174A164B5B68D5
:1052D00043F0100353607B6800221A607B6804333C
:1052E0007B607B6800221A604FF4004000F09EF85B
:1052F0000346FB730C4A0C4B5B6823F4007353604A
:10530000094A094B5B6823F0100353604FF0E02219
:105310004FF0E0239B6823F001039360FB7B18466A
:105320001037BD4680BD00BF003C0240B0B586B01E
:1053300000AFF860C7E900230423FB754FF0E022BB
:105340004FF0E0239B6843F0010393604FF400406B
:1053500000F06CF80346FB75FB7D042B2AD11C4A38
:105360001B4B5B6843F480635360194A184B5B68BE
:1053700043F010035360FB683A681A60FB6804331B
:10538000FB60F968D7E900231C00002523460B6069
:105390004FF4004000F04AF80346FB750C4A0C4BF2
:1053A0005B6823F480635360094A094B5B6823F010
:1053B000100353604FF0E0224FF0E0239B6823F08E
:1053C00001039360FB7D18461837BD46B0BD00BF92
:1053D000003C024080B483B000AF0423FB71124B49
:1053E0009B6903F00103002B02D00123FB7113E042
:1053F0000D4B9B6903F48073002B02D00223FB71D9
:105400000AE0094B9B6903F4F053002B02D00323FD
:10541000FB7101E00423FB71FB7918460C37BD4694
:105420005DF8047B704700BF003C024080B584B04B
:1054300000AF78600423FB73FFF7CCFF0346FB73D8
:1054400006E0FFF7C7FF0346FB737B68013B7B6009
:10545000FB7BDBB2012B02D17B68002BF1D17B6897
:10546000002B01D10523FB73FB7BDBB21846103701
:04547000BD4680BDF8
:0400000508003C199A
:00000001FF
